:020000040000FA
:10000000600D414243444546344A2C4A303339342A
:10001000373931323141303530353634382F000000
:1000200000000000000000000000000000000000D0
:100030000000000008F24E9F00FF45315555004D6D
:1000400027E80000000008CA1F9C02023130383047
:10005000334AFFFD00FF0001000000000000000027
:100060000000000000000000000000000000000090
:100070000000000000000000000000000000000080
:100080003036323830300000400000005F5C00FF46
:10009000FFFF00AE190064F06D606D602BC06D60F5
:1000A00000000000017F016D000064000960000095
:1000B00038401900721000006400096000003840E8
:1000C00000005DC0000064000960000038400000CE
:1000D0005DC00000321826E80001000000003C4826
:1000E000000000003C48000100000000000000008B
:1000F0000000000037000A008CA000000000000093
:100100000002258000001A9000000000000000009E
:1001100000000000000000000000000000000000DF
:1001200000000000000000000000000000000000CF
:1001300000001F400100038400002EE09C4041A00D
:100140000046000000010C31020000000000000029
:10015000000000000000000000000400000000009B
:100160000000000000000038000000000000000057
:10017000000000000000000000000000000000007F
:10018000000000000000000000461C1270001E303D
:1001900002000000000000000090000000000000CD
:1001A000000B040600000000000000000000000832
:1001B000000000000000000000000000000000003F
:1001C00000100000000000000000F345004008009F
:1001D0000000005C000000000000000000000000C3
:1001E000000000000000000000000000000000000F
:1001F00000000000000000000000000000000000FF
:1002000000000000000000000000000000000000EE
:1002100000000000000000000000000000000000DE
:1002200000000000000000000000000000000000CE
:10023000000A3E003E0000800000000100000000B7
:1002400000000000000000000000000000000000AE
:10025000000000000000000000000000000000009E
:10026000000000000000000000000000000000008E
:10027000020A0A3200013036323830300000000005
:10028000000000000000000000000000000000006E
:10029000000000000000000000000000000000005E
:1002A000000000000000000000000000000000004E
:1002B0000000000000000000000000000002100C20
:1002C000000200021004007600021051000000023B
:1002D0001047000000021004008C005E00010000C6
:1002E0000005014A434D4D4E5336425441352E3997
:1002F000204C692020202020202000000000000049
:10030000000A3900000000000000000000000000AA
:100310000000000000000046503938343536000136
:10032000A406400C8000D70A8C2020003C27C00087
:100330000000000000204A39303237302E3036209D
:1003400020202020202020202020202646234A2054
:10035000202020202020202020202020202020209D
:10036000202020202020202020202020202020208D
:1003700020202020202020000043687279736C65C3
:100380007220202020202020542D333030202020A7
:10039000202020202020202020202020202020205D
:1003A000202020202020202020202020202020204D
:1003B000202020202020202020202020202020203D
:1003C000202020202020202020202020202020202D
:1003D00020202020202020202020202020333934DD
:1003E00039343339313030333934393434303230D0
:1003F00030333934393434313330303339343934BB
:1004000034323430303339343934343335303033B6
:10041000393439343434363030333934393434358E
:100420003730303339343934343638303000000026
:10043000000000000000000001312D000006000057
:100440000000170000000000000000000000000095
:1004500000000000000002006D60000600060006BB
:10046000000600060006000600060006000600035F
:100470000003000600060006000100060006000654
:10048000000600060006000600060006000600063C
:1004900000060006000D00010006FFFFFFFFFFFF42
:1004A000FFFFFFFFFFFFFFFFFFFFFFFF3030303098
:1004B00030300000000500050000000000040004CA
:1004C000000C000700010001000B000000000012FA
:1004D0000C80060012C0000519001C201F4022607D
:1004E0002EE000060064000000044E200000000022
:1004F000600D0008000000000000020030303030C5
:1005000030303030303030303030303030303030EB
:1005100030303030303030303030303030303030DB
:100520000000000C0000000000000000099A000418
:100530001000001600000E1C0004223900001E3CB2
:10054000000902E100010010000C3C00370000002F
:10055000030008000006000000000000FFFFFFFF8E
:10056000FFFFFFFFFFFFFFFF14404020A1A100009D
:10057000000000000000000000000000000000007B
:100580000000000000000078FEFE000000000000F7
:10059000000000000000000000000000000000005B
:1005A000FEFE00000000000000000000000000004F
:1005B0000000000000000000FEFE0000000000003F
:1005C000000000000000000000000000000000002B
:1005D000FEFE00000000000000000000000000001F
:1005E0000000000000000000FEFE0000000000000F
:1005F00000000000000000000000000000000000FB
:100600000018FEFE000000000000000000000000D6
:10061000000000000000000000000018FEFE0000C6
:1006200000000000000000000000000000000000CA
:1006300000000000000000000000000000000001B9
:1006400000000000000000000000000000000000AA
:1006500000C800000000000000640000000000006E
:10066000000000000000000000000000000000008A
:10067000000000000000000000000000000000007A
:10068000000000000000000000000000000000006A
:10069000000000000000000000000000000000005A
:100BE000000000000000000000000000A1A10000C3
:100BF00000000000000000000000000000000000F5
:100C000000000000000000000000000000000000E4
:100C100000000000000000000000000400000000D0
:100C200000000000000000000000000000000000C4
:100C300000000000000000000000000000000000B4
:100C40002000000000000000000000000000000084
:100C50000000000000000000000000000000000094
:100C6000080000000000000000000000000000007C
:100C700000000000000000000000000000800000F4
:100C80000000000000000000000000000000000064
:100C90000000000000000000000000000000000054
:100CA0000100000000000000000000000000000043
:100CB0000000000000000000000000000000000034
:100CC0000000000000000000000000000000000024
:100CD0000000040000000000000000000000000010
:100CE0000000000000000000000000000000000004
:100CF00000000000000000000000000000000000F4
:100D000000000000000000000000000000000000E3
:100D100000000000000000000000000000000000D3
:100D200000100000000000000000000000000000B3
:100D300000000000000000000000000000000000B3
:100D400000000000000000000000000000000000A3
:100D50000000000000000000000000000000000093
:100D60000000000000000000000000000000000083
:100D70000000000000000000000000000000000073
:100D800000000000000080000000000000000000E3
:100D90000000000000000000000000000000000053
:100DA0000000000000000000000000000000000043
:100DB0000000000000000000000000000000000033
:100DC0000000000000000000000000000000000023
:100DD0000000000000000000000000000000000013
:100DE0000000000000000000000000000000000003
:100DF00000000000000000000000000000000000F3
:100E000000000000000000000000000000000000E2
:100E100000000000000000000000000000000000D2
:100E200000000000000000000000000000000000C2
:100E300000000000000000000000000008000000AA
:100E400000000000000000000000000000000000A2
:100E50000000000000000000000000000000000092
:100E60000000000000000000000000000000000082
:100E70000000000000000000000000000000000072
:100E80000000000000000000000000000000000062
:100E90000000000000000000000000000000000052
:100EA0000000000000000000000000000000000042
:100EB0000000020000000000000000000000000030
:100EC0000000000000000000000000000000000022
:100ED0000000000000000000000000000000000012
:100EE00000000000000000000000400000000000C2
:100EF00000000000000000000000000000000000F2
:100F000000000000000000000000000000000000E1
:100F10000000000000000000000000000000800051
:100F200000000000000000000000000000000000C1
:100F300000000000000000000000000000000000B1
:100F400000000000000000000000000000000000A1
:100F50000000000000000000000000000000000091
:100F60000000000000000000000000000000000081
:100F70000000000000000000000000000000000071
:100F80000000000000000000000000000000000061
:100F90000000000000000000000000000000000051
:100FA000000000000400000000000000000000003D
:100FB0000000000000000000000000000000000031
:100FC0000000000000000000000000000000000021
:100FD0000000000000000000000000000000000011
:100FE0000000000000000000000000000000000001
:100FF0000000000000800000000000000000000071
:1010000000000000000000000000000000000000E0
:1010100000000000000000000000000000000000D0
:1010200000000000000000000000000000000000C0
:1010300000000000000000000000000000000000B0
:1010400000000000000000000000000000000000A0
:101050000000000000000000000000000000000090
:101060000000000000000000000000000000000080
:101070000000000000000000000000000000000070
:101080000000000000000000000000000000000060
:101090000000000000000000000000000800000048
:1010A0000000000000000000000000000000000040
:1010B0000000000000000000000000000000000030
:1010C0000000000000000000000000000000000020
:1010D0000000000000000000000000000000000010
:1010E0000000000000000000000000000000000000
:1010F00000000000001000000000000000000000E0
:1011000000000000000000000000000000000000DF
:1011100000000000000000000000000000000000CF
:1011200000000000000000000000000000000000BF
:1011300000000000000000000000000000000000AF
:10114000000000000000000000000000000000009F
:10115000000000000000000000000000000000008F
:10116000000000000000000000000000000000007F
:10117000000000000000000000000000000000006F
:10118000000000000000000000000000000000005F
:10119000000000000000000000000000000000004F
:1011A000000000000000000000000000000000003F
:1011B000000000000000000000000000000000002F
:1011C000000000000000000000010000000000001E
:1011D000000000000000000000000000000000000F
:1011E00000000000000000000000000000000000FF
:1011F00000000000000000000000000000000000EF
:1012000000000000000000000000000000000000DE
:1012100000000000000000000000000000000000CE
:1012200000000000000000000000000000000000BE
:1012300000000000000002000000000000000000AC
:10124000000000000000000000000000000000009E
:10125000000000000000000000000000000000008E
:10126000000000000000000000000000000000007E
:10127000000000000000000000000000000000006E
:10128000000000000000000000000000000000005E
:10129000000000000000000000000000000000004E
:1012A000000000000000000010000000000000002E
:1012B000000000000000000000000000000000002E
:1012C000000000000000000000000000000000001E
:1012D000000000000000000000000000000000000E
:1012E00000000000000000000000000000000000FE
:1012F00000000000000000000000000000000000EE
:1013000000000000000000000000000000000000DD
:1013100000000000000000000000000000000000CD
:1013200000000000000000000000000000000000BD
:1013300000000000000000000000000000000000AD
:10134000000000000000000000000000000000009D
:10135000000000000000000000000000000000008D
:10136000000000000000000000000000000000007D
:10137000000000000000000000000000000000006D
:10138000000000000000000000000000000000005D
:10139000000000000000000000000000000000004D
:1013A000000000000000000000000000000000003D
:1013B000000000000000000000000000000000002D
:1013C000000000000000000000000000000000001D
:1013D000000000000000000000000000000000000D
:1013E00000000000000000000000000000000000FD
:1013F00000000000000000000000000000000000ED
:1014000000000000000000000000000000000000DC
:1014100000000000000000000000000000000000CC
:1014200000000000000000000000000000000000BC
:1014300000000000000000000000000000000000AC
:10144000000000000000000000000000000000009C
:101450000800000000000000000000000000000084
:1014600000008000000000000000000000000000FC
:1014700000000000000000008000000000000000EC
:10148000000000000000000000000000000000005C
:10149000000000000000000000000000000000004C
:1014A000000000000000000000000000000000003C
:1014B000000000000000000000000000000000002C
:1014C000000000000000000000000000000000001C
:1014D000000000000000000000000000000000000C
:1014E00000000000000000000000000000000000FC
:1014F00000000000000000000000000000200000CC
:1015000000000000000000000000000000000000DB
:1015100000000000000000000000000000000000CB
:1015200000000000000000000000000000000000BB
:1015300000000000000000000000000000000000AB
:10154000000000000000000000000000000000009B
:10155000000000000000000000000000000000008B
:10156000000000000000000000000000000000007B
:10157000000000000000000000000000000000006B
:10158000000000000000000000000000000000005B
:10159000000000000000000000000000000000004B
:1015A000000000000000000000000000000000003B
:1015B000000000000000000000000000000000002B
:1015C000000000000000000000000000000000001B
:1015D000000000000000000000000000000000000B
:1015E00000000000000000000000000000000000FB
:1015F00000000000000000000000000000000000EB
:1016000000000000000000000000000000000000DA
:1016100000000000000000000000000000000000CA
:1016200000000000000000000000000000000000BA
:1016300000000000000000000000000000000000AA
:10164000000000000000000000000000000000009A
:10165000000000000000000000000000000000008A
:10166000000000000000000000000000000000007A
:10167000000000000000000000000000000000006A
:10168000000000000000000000000000000000005A
:10169000000000000000000000000000000000004A
:1016A000000000000000000000000000000000003A
:1016B0000000000000000000000000000000020028
:1016C000000000000000000000000000000000001A
:1016D000000000000000000000000000000000000A
:1016E00000000000040000000000000000000000F6
:1016F00000000000000000000000000000000000EA
:1017000000000000000000000000000000000000D9
:1017100000000000000000000000000000000000C9
:1017200000000000000000000000000000000000B9
:1017300000000000000000000000000000000000A9
:101740000000000000000000000000000000000099
:101750000000000000000000000000000000000089
:101760000000000000000000000000000000000079
:101770000000000000000000000000000000000069
:101780000000000000000000000000000000000059
:101790000000000000000000000000000000000049
:1017A0000000000000000000000000000000000039
:1017B0000000000000000000000000000000000029
:1017C0000000000000000000000000000000000019
:1017D0000000000000000000000000000000000009
:1017E00000000000000000000000000000000000F9
:1017F00000000000000000000000000000000000E9
:1018000000000000000000000000000000000000D8
:1018100000000000000000000000000000000000C8
:1018200000000000000000000000000000000000B8
:1018300000000000000000000000000000000100A7
:101840000000000000000000000000000000000098
:101850000000000000000000000000000000000088
:101860000000000000000000000000000000000078
:1018700080000000000000000000000000000200E6
:101880000000000000000000000000000000000058
:101890000000000000000000000000000000000048
:1018A0000000000000000008000000000000000030
:1018B0000000000000000000000000000000000028
:1018C0000000000000000000000000000000000018
:1018D0000000000000000000000000000000000008
:1018E00000000000000000000000000000000000F8
:1018F00000000000000000000000000000000000E8
:1019000000000000000000000000000000000000D7
:1019100000000000000000000000000000000000C7
:1019200000000100000000000000000000000000B6
:1019300000000000000000000000000000000000A7
:101940000000000000000000000000000000000097
:101950000000000000000000000000000000000087
:101960000000000000000000000000200000000057
:101970000000000000000000000000000000000067
:101980000000000000000000000000000000000057
:101990000000000000000000000000000000000047
:1019A0000000000000000000000000000000000037
:1019B0000000000000000000000000000000000027
:1019C0000000000000000000000000000000000017
:1019D0000000000000000000000000000000000007
:1019E00000000000000000000000000000000000F7
:1019F00000000000000000000000000000000000E7
:101A000000000000000000000000000000000000D6
:101A100000000000000000000000000000000000C6
:101A200000000000000000000000000000000000B6
:101A300000000000000000000000000000000000A6
:101A40000000000000000000000000000000000096
:101A50000000000000000000000000000000000086
:101A60000000000000000000000000000001000075
:101A70000000000000000000000000000000000066
:101A80000000000000000000000000000000000056
:101A90000000000000000000000000000000000046
:101AA0000000000000000000000000000000000036
:101AB0000000000000000000000000000000000026
:101AC0000000000000000000000000000000000016
:101AD00000000000000000000000000000000040C6
:101AE00000000020000000000000000000000000D6
:101AF00000000000000000000000000000000000E6
:101B000000000000000000000000000000000000D5
:101B100000000000000000000000000000000000C5
:101B200000000000000000000000000000000000B5
:101B300000000000000000000000000000000000A5
:101B40000000000000000000000000000000000095
:101B50000000000000000000000000000000000085
:101B60000000000000000000000000000000000075
:101B70000000000000000000000000000000000065
:101B80000000000000000000000000000000000055
:101B90000000000000000000000000000000000045
:101BA0000000000000000000000000000000000035
:101BB0000200000000000000000000000000000023
:101BC0000000000000000000000000000000000015
:101BD0000000000000000000000000000000000005
:101BE00000000000000000000000000000000000F5
:101BF00000000000000000000000000000000000E5
:101C000000000000000000000000000000000000D4
:101C100000000000000000000000000000000000C4
:101C200000000000000000000000000000000000B4
:101C300000000000000000000000000000000000A4
:101C40000000000000000000000000000000000094
:101C50000000000000000000000000000000000084
:101C60000000000000000000000100000000000073
:101C70000000000000000000000000000000000064
:101C80000000000000000000000000000000000054
:101C90000000000000000000000000000000000044
:101CA0000000000000000000000000000000000034
:101CB0000000000000000000000000000000020022
:101CC0000000000000000000000000000000000014
:101CD0000000000000000000000000000000000004
:101CE00000000000000000000000000000000000F4
:101CF00000000000000000000000000000000000E4
:101D000000000000000000000000000000000000D3
:101D100000000000000000000000000000000000C3
:101D200000000000000000000000000000000000B3
:101D300000000000000000000000000000000000A3
:101D40000000000000000000000000000000000093
:101D50000000000000000000000000000000000083
:101D60000000000000000000000000000000000073
:101D70000000000000000000000000000000000063
:101D80000000000000000000000000000000000053
:101D90000000000000000000000000000000000043
:101DA0000000000000000000000000000000000033
:101DB0000000000000000000000000000000000023
:101DC0000000000000000000000000000000000013
:101DD0000000000000000000000000000000000003
:101DE00000000000000000000000000000000000F3
:101DF00000000000000000000000000000000000E3
:101E000000000000000000000000000000000000D2
:101E100000000000000000000000000004000000BE
:101E200000000000000000000000000000000000B2
:101E300000000000000000000000000000000000A2
:101E40000000000000000000000000000000000092
:101E50000000000000000000000000000000000082
:101E60000000000000000000000000000000000072
:101E70000000000000000000000000000000000062
:101E80000000000000000000000000000000000052
:101E90000000000000000000000000000000000042
:101EA0000000000000000000000000000000000032
:101EB0000000000000000000000000000000000022
:101EC0000000000000000000000000000000000012
:101ED0000000000000000000000000000000000002
:101EE00000000000000000000000000000000000F2
:101EF00000000000000000000000000000400000A2
:101F000000000000000000000000000000000000D1
:101F100000000000000000000000000000000000C1
:101F200000000000000000000000000000000000B1
:101F300000000000000000000000000000000000A1
:101F40000000000000000000000000000000000091
:101F50000000000000000000000000000000000081
:101F60000000000000000000000000000000000071
:101F70000000000000000000000000000000000061
:101F80000000000000000000000000000000000051
:101F90000000000000000000000000000000000041
:101FA0000000000000000000000000000000000031
:101FB0000000000000000000000000000000000021
:101FC0000000000000000000000000000000000011
:101FD0000000000000000000000000000000000001
:101FE00000000000000000000000000000000000F1
:101FF00000000000000000000000000000000000E1
:00000001FF
