:020000040000FA
:10000000600D414243444546BCCABCCA3033393412
:10001000373431323143303330323032333F000005
:1000200000000000000000000000000000000000D0
:10003000000000000B1EE28900FF45315555002EDF
:1000400015C7000000000B0F79B6070038333130B8
:10005000354AFFFF00FF0000000000000000000024
:100060000000000000000000000000000000000090
:100070000000000000000000000000000000000080
:100080003031323430310000400000005C3C00FF71
:10009000FFFF00AE190064F06D606D602BC06D60F5
:1000A00000000000017F016D000064000960000095
:1000B00038401900721000006400096000003840E8
:1000C00000005DC0000064000960000038400000CE
:1000D0005DC0000023D335230001000000003C4830
:1000E000000000003C48000100000000000000008B
:1000F0000000000037000A008CA000000000000093
:100100000002258000001A9000000000000000009E
:1001100000000000000000000000000000000000DF
:1001200000000000000000000000000000000000CF
:1001300000001F400100038400002EE09C4041A00D
:100140000046000000010C31020000000000000029
:10015000000000000000000000000400000000009B
:100160000000000000000038000000000000000057
:10017000000000000000000000000000000000007F
:10018000000000000000000000461C1270201E301D
:1001900004C000000000000000900000000000000B
:1001A000000B040600000000000000000000000832
:1001B000000000000000000000000000000200003D
:1001C00000100000000000000000F345F4400801AA
:1001D0000000005C000000000000000000000000C3
:1001E000000000000000000000000000000000000F
:1001F00000000000000000000000000000000000FF
:1002000000000000000000000000000000000000EE
:1002100000000000000000000000000000000000DE
:1002200000000000000000000000000000000000CE
:10023000000E55006F0001C500000001020D000016
:1002400000000000000000000000000000000000AE
:10025000000000000000000000000000000000009E
:10026000000000000000000000000000000000008E
:1002700000000000020A0A3200013031323430310D
:10028000014A434D4D4E5336425441352E39204C90
:100290006920202020202020036204B80138800B30
:1002A0005A000000000000000000000000000000F4
:1002B0000000000000465039383834390001F90692
:1002C000400C8000F50A8C2020003C3B940000008C
:1002D000000000204A39303833312E3035202020BC
:1002E00020202020202020202017BA241E2020207B
:1002F00020202020202020202020202020202020FE
:1003000020202020202020202020202020202020ED
:100310002020202020000043687279736C657220D1
:1003200020202020202042722F4245202020202003
:1003300020202020202020202020202020202020BD
:1003400020202020202020202020202020202020AD
:10035000202020202020202020202020202020209D
:10036000202020202020202020202020202020208D
:100370002020202020202020202020333935373015
:100380003433313030333934393837333230303335
:10039000393439383731333030333934393838310A
:1003A0003430303339353730343535303033393413
:1003B00039383632363030333935373034343730F7
:1003C00030333934393837373830300000000000E6
:1003D00000000000000001312D00170000000000A7
:1003E000000000000000000000000000000002000B
:1003F0006D60000600060006000600060006000606
:1004000000060006000600030003000600060006C2
:1004100000010006000600060006000600060006B1
:10042000000600060006000600060006000D00009B
:1004300000060006FFFFFFFFFFFFFFFFFFFFFFFFBC
:10044000FFFFFFFFFFFF303030303030000032C19F
:1004500032C10000000032C032C01A6A1A690000BE
:1004600000201A4A0000000000044E200000010095
:10047000600D000800000000000002003030303045
:10048000303030303030303030303030303030306C
:10049000303030303030303030303030303030305C
:1004A0000000000C000000000000000006660004D0
:1004B00013240006000000010020000200000000DC
:1004C000000000000000000000000000000000002C
:1004D00000000000000000000004065900020000B7
:1004E00000060A4103E801C2000001C201A400089D
:1004F000080010001800280000080258025802588E
:1005000001CC001600003170000D5C0000001F409F
:10051000000902AB00010010000C3C003700000095
:100520000300080000060000000000000000FFFFBC
:10053000FFFFFFFFFFFFFFFFFFFF14404020A1A1CF
:1005400000000000000000000000000000000000AB
:1005500000000000000000000078FEFE0000000027
:10056000000000000000000000000000000000008B
:100570000000FEFE0000000000000000000000007F
:1005800000000000000000000000FEFE000000006F
:10059000000000000000000000000000000000005B
:1005A0000000FEFE0000000000000000000000004F
:1005B00000000000000000000000FEFE000000003F
:1005C000000000000000000000000000000000002B
:1005D00000000018FEFE0000000000000000000007
:1005E0000000000000000000000000000018FEFEF7
:1005F00000000000000000000000000000000000FB
:1006000000000000000000000000000000000000EA
:10061000000100000000A1A1000000000000000097
:1006200000000000000000000000000000000000CA
:1006300000000000000000000000000000000000BA
:1006400000000000000000000000000000000000AA
:10065000000000000000000000000000000000009A
:00000001FF
